{
  "contractName": "CarbonFootprintTracker",
  "abi": [
    {
      "anonymous": false,
      "inputs": [
        {
          "indexed": true,
          "internalType": "address",
          "name": "user",
          "type": "address"
        },
        {
          "indexed": false,
          "internalType": "uint256",
          "name": "treeCredits",
          "type": "uint256"
        }
      ],
      "name": "CreditsOffset",
      "type": "event"
    },
    {
      "anonymous": false,
      "inputs": [
        {
          "indexed": true,
          "internalType": "address",
          "name": "user",
          "type": "address"
        },
        {
          "indexed": false,
          "internalType": "uint256",
          "name": "carbonFootprint",
          "type": "uint256"
        },
        {
          "indexed": false,
          "internalType": "uint256",
          "name": "treeCredits",
          "type": "uint256"
        }
      ],
      "name": "FootprintRecorded",
      "type": "event"
    },
    {
      "inputs": [
        {
          "internalType": "address",
          "name": "",
          "type": "address"
        }
      ],
      "name": "totalTreeCredits",
      "outputs": [
        {
          "internalType": "uint256",
          "name": "",
          "type": "uint256"
        }
      ],
      "stateMutability": "view",
      "type": "function",
      "constant": true
    },
    {
      "inputs": [
        {
          "internalType": "address",
          "name": "",
          "type": "address"
        },
        {
          "internalType": "uint256",
          "name": "",
          "type": "uint256"
        }
      ],
      "name": "userFootprints",
      "outputs": [
        {
          "internalType": "uint256",
          "name": "timestamp",
          "type": "uint256"
        },
        {
          "internalType": "uint256",
          "name": "carbonFootprint",
          "type": "uint256"
        },
        {
          "internalType": "uint256",
          "name": "treeCredits",
          "type": "uint256"
        },
        {
          "internalType": "bool",
          "name": "isOffset",
          "type": "bool"
        }
      ],
      "stateMutability": "view",
      "type": "function",
      "constant": true
    },
    {
      "inputs": [
        {
          "internalType": "uint256",
          "name": "_carbonFootprint",
          "type": "uint256"
        },
        {
          "internalType": "uint256",
          "name": "_treeCredits",
          "type": "uint256"
        }
      ],
      "name": "recordFootprint",
      "outputs": [],
      "stateMutability": "nonpayable",
      "type": "function"
    },
    {
      "inputs": [
        {
          "internalType": "uint256",
          "name": "_amount",
          "type": "uint256"
        }
      ],
      "name": "offsetCredits",
      "outputs": [],
      "stateMutability": "nonpayable",
      "type": "function"
    },
    {
      "inputs": [
        {
          "internalType": "address",
          "name": "_user",
          "type": "address"
        }
      ],
      "name": "getUserFootprints",
      "outputs": [
        {
          "components": [
            {
              "internalType": "uint256",
              "name": "timestamp",
              "type": "uint256"
            },
            {
              "internalType": "uint256",
              "name": "carbonFootprint",
              "type": "uint256"
            },
            {
              "internalType": "uint256",
              "name": "treeCredits",
              "type": "uint256"
            },
            {
              "internalType": "bool",
              "name": "isOffset",
              "type": "bool"
            }
          ],
          "internalType": "struct CarbonFootprintTracker.FootprintRecord[]",
          "name": "",
          "type": "tuple[]"
        }
      ],
      "stateMutability": "view",
      "type": "function",
      "constant": true
    },
    {
      "inputs": [
        {
          "internalType": "address",
          "name": "_user",
          "type": "address"
        }
      ],
      "name": "getUserTreeCredits",
      "outputs": [
        {
          "internalType": "uint256",
          "name": "",
          "type": "uint256"
        }
      ],
      "stateMutability": "view",
      "type": "function",
      "constant": true
    }
  ],
  "bytecode": "0x608060405234801561001057600080fd5b50610de6806100206000396000f3fe608060405234801561001057600080fd5b50600436106100625760003560e01c806337b1538114610067578063654d5b411461009a5780636e8aac4a146100b65780637f51217e146100d2578063f229785814610102578063f2ba2e9414610132575b600080fd5b610081600480360381019061007c919061082b565b610162565b6040516100919493929190610b7f565b60405180910390f35b6100b460048036038101906100af9190610890565b6101bc565b005b6100d060048036038101906100cb9190610867565b6103be565b005b6100ec60048036038101906100e79190610802565b6106a1565b6040516100f99190610b3b565b60405180910390f35b61011c60048036038101906101179190610802565b6106b9565b6040516101299190610ab9565b60405180910390f35b61014c60048036038101906101479190610802565b61078f565b6040516101599190610b3b565b60405180910390f35b6000602052816000526040600020818154811061017e57600080fd5b9060005260206000209060040201600091509150508060000154908060010154908060020154908060030160009054906101000a900460ff16905084565b600082116101ff576040517f08c379a00000000000000000000000000000000000000000000000000000000081526004016101f690610afb565b60405180910390fd5b6000811015610243576040517f08c379a000000000000000000000000000000000000000000000000000000000815260040161023a90610b1b565b60405180910390fd5b600060405180608001604052804281526020018481526020018381526020016000151581525090506000803373ffffffffffffffffffffffffffffffffffffffff1673ffffffffffffffffffffffffffffffffffffffff16815260200190815260200160002081908060018154018082558091505060019003906000526020600020906004020160009091909190915060008201518160000155602082015181600101556040820151816002015560608201518160030160006101000a81548160ff021916908315150217905550505081600160003373ffffffffffffffffffffffffffffffffffffffff1673ffffffffffffffffffffffffffffffffffffffff16815260200190815260200160002060008282546103629190610c0e565b925050819055503373ffffffffffffffffffffffffffffffffffffffff167f64f642acbbd6e71be56c01f893cce1046cc6bfbf78c08a00b814b1465d186a8b84846040516103b1929190610b56565b60405180910390a2505050565b80600160003373ffffffffffffffffffffffffffffffffffffffff1673ffffffffffffffffffffffffffffffffffffffff168152602001908152602001600020541015610440576040517f08c379a000000000000000000000000000000000000000000000000000000000815260040161043790610adb565b60405180910390fd5b80600160003373ffffffffffffffffffffffffffffffffffffffff1673ffffffffffffffffffffffffffffffffffffffff168152602001908152602001600020600082825461048f9190610c64565b92505081905550600081905060005b6000803373ffffffffffffffffffffffffffffffffffffffff1673ffffffffffffffffffffffffffffffffffffffff16815260200190815260200160002080549050811080156104ee5750600082115b1561064e576000803373ffffffffffffffffffffffffffffffffffffffff1673ffffffffffffffffffffffffffffffffffffffff1681526020019081526020016000208181548110610569577f4e487b7100000000000000000000000000000000000000000000000000000000600052603260045260246000fd5b906000526020600020906004020160030160009054906101000a900460ff1661063b5760016000803373ffffffffffffffffffffffffffffffffffffffff1673ffffffffffffffffffffffffffffffffffffffff1681526020019081526020016000208281548110610604577f4e487b7100000000000000000000000000000000000000000000000000000000600052603260045260246000fd5b906000526020600020906004020160030160006101000a81548160ff021916908315150217905550818061063790610ce0565b9250505b808061064690610d0a565b91505061049e565b503373ffffffffffffffffffffffffffffffffffffffff167f78be7af6bc7e3d8c51bf7ca1a83eaf058ffdebcfe507b31aba28d5a41fcc5d24836040516106959190610b3b565b60405180910390a25050565b60016020528060005260406000206000915090505481565b60606000808373ffffffffffffffffffffffffffffffffffffffff1673ffffffffffffffffffffffffffffffffffffffff168152602001908152602001600020805480602002602001604051908101604052809291908181526020016000905b8282101561078457838290600052602060002090600402016040518060800160405290816000820154815260200160018201548152602001600282015481526020016003820160009054906101000a900460ff16151515158152505081526020019060010190610719565b505050509050919050565b6000600160008373ffffffffffffffffffffffffffffffffffffffff1673ffffffffffffffffffffffffffffffffffffffff168152602001908152602001600020549050919050565b6000813590506107e781610d82565b92915050565b6000813590506107fc81610d99565b92915050565b60006020828403121561081457600080fd5b6000610822848285016107d8565b91505092915050565b6000806040838503121561083e57600080fd5b600061084c858286016107d8565b925050602061085d858286016107ed565b9150509250929050565b60006020828403121561087957600080fd5b6000610887848285016107ed565b91505092915050565b600080604083850312156108a357600080fd5b60006108b1858286016107ed565b92505060206108c2858286016107ed565b9150509250929050565b60006108d88383610a46565b60808301905092915050565b60006108ef82610bd4565b6108f98185610bec565b935061090483610bc4565b8060005b8381101561093557815161091c88826108cc565b975061092783610bdf565b925050600181019050610908565b5085935050505092915050565b61094b81610caa565b82525050565b61095a81610caa565b82525050565b600061096d601483610bfd565b91507f496e73756666696369656e7420637265646974730000000000000000000000006000830152602082019050919050565b60006109ad602183610bfd565b91507f436172626f6e20666f6f747072696e74206d75737420626520706f736974697660008301527f65000000000000000000000000000000000000000000000000000000000000006020830152604082019050919050565b6000610a13601f83610bfd565b91507f5472656520637265646974732063616e6e6f74206265206e65676174697665006000830152602082019050919050565b608082016000820151610a5c6000850182610a9b565b506020820151610a6f6020850182610a9b565b506040820151610a826040850182610a9b565b506060820151610a956060850182610942565b50505050565b610aa481610cd6565b82525050565b610ab381610cd6565b82525050565b60006020820190508181036000830152610ad381846108e4565b905092915050565b60006020820190508181036000830152610af481610960565b9050919050565b60006020820190508181036000830152610b14816109a0565b9050919050565b60006020820190508181036000830152610b3481610a06565b9050919050565b6000602082019050610b506000830184610aaa565b92915050565b6000604082019050610b6b6000830185610aaa565b610b786020830184610aaa565b9392505050565b6000608082019050610b946000830187610aaa565b610ba16020830186610aaa565b610bae6040830185610aaa565b610bbb6060830184610951565b95945050505050565b6000819050602082019050919050565b600081519050919050565b6000602082019050919050565b600082825260208201905092915050565b600082825260208201905092915050565b6000610c1982610cd6565b9150610c2483610cd6565b9250827fffffffffffffffffffffffffffffffffffffffffffffffffffffffffffffffff03821115610c5957610c58610d53565b5b828201905092915050565b6000610c6f82610cd6565b9150610c7a83610cd6565b925082821015610c8d57610c8c610d53565b5b828203905092915050565b6000610ca382610cb6565b9050919050565b60008115159050919050565b600073ffffffffffffffffffffffffffffffffffffffff82169050919050565b6000819050919050565b6000610ceb82610cd6565b91506000821415610cff57610cfe610d53565b5b600182039050919050565b6000610d1582610cd6565b91507fffffffffffffffffffffffffffffffffffffffffffffffffffffffffffffffff821415610d4857610d47610d53565b5b600182019050919050565b7f4e487b7100000000000000000000000000000000000000000000000000000000600052601160045260246000fd5b610d8b81610c98565b8114610d9657600080fd5b50565b610da281610cd6565b8114610dad57600080fd5b5056fea2646970667358221220318581a8bba0f315d59cd59aafdb779454edd1d517a53b749e9a2fa9b127f60264736f6c63430008000033",
  "immutableReferences": {},
  "source": "// SPDX-License-Identifier: MIT\npragma solidity ^0.8.0;\n\ncontract CarbonFootprintTracker {\n    struct FootprintRecord {\n        uint256 timestamp;\n        uint256 carbonFootprint;\n        uint256 treeCredits;\n        bool isOffset;\n    }\n    \n    mapping(address => FootprintRecord[]) public userFootprints;\n    mapping(address => uint256) public totalTreeCredits;\n    \n    event FootprintRecorded(address indexed user, uint256 carbonFootprint, uint256 treeCredits);\n    event CreditsOffset(address indexed user, uint256 treeCredits);\n    \nfunction recordFootprint(uint256 _carbonFootprint, uint256 _treeCredits) public {\n    require(_carbonFootprint > 0, \"Carbon footprint must be positive\");\n    require(_treeCredits >= 0, \"Tree credits cannot be negative\");\n\n    FootprintRecord memory newRecord = FootprintRecord({\n        timestamp: block.timestamp,\n        carbonFootprint: _carbonFootprint,\n        treeCredits: _treeCredits,\n        isOffset: false\n    });\n\n    userFootprints[msg.sender].push(newRecord);\n    totalTreeCredits[msg.sender] += _treeCredits;\n\n    emit FootprintRecorded(msg.sender, _carbonFootprint, _treeCredits);\n}\n\n    \n    function offsetCredits(uint256 _amount) public {\n        require(totalTreeCredits[msg.sender] >= _amount, \"Insufficient credits\");\n        totalTreeCredits[msg.sender] -= _amount;\n        \n        // Mark the oldest non-offset records as offset\n        uint256 remainingAmount = _amount;\n        for (uint256 i = 0; i < userFootprints[msg.sender].length && remainingAmount > 0; i++) {\n            if (!userFootprints[msg.sender][i].isOffset) {\n                userFootprints[msg.sender][i].isOffset = true;\n                remainingAmount--;\n            }\n        }\n        \n        emit CreditsOffset(msg.sender, _amount);\n    }\n    \n    function getUserFootprints(address _user) public view returns (FootprintRecord[] memory) {\n        return userFootprints[_user];\n    }\n    \n    function getUserTreeCredits(address _user) public view returns (uint256) {\n        return totalTreeCredits[_user];\n    }\n}",
  "sourcePath": "/Users/yughjuneja/Downloads/Carbon-Footprint-Calculator-App-main/blockchain/contracts/CarbonFootprintTracker.sol",
  "compiler": {
    "name": "solc",
    "version": "0.8.0+commit.c7dfd78e.Emscripten.clang"
  },
  "schemaVersion": "3.4.16",
  "updatedAt": "2024-11-19T15:05:43.421Z",
  "networkType": "ethereum",
  "devdoc": {
    "kind": "dev",
    "methods": {},
    "version": 1
  },
  "userdoc": {
    "kind": "user",
    "methods": {},
    "version": 1
  }
}